:020000040000FA
:100000000080001031000000198D0000198D0000E3
:10001000198D0000198D0000198D0000198D000048
:10002000198D0000198D0000198D000031010000AC
:1000300000F002F800F06CF80AA090E8000C82448E
:100040008344AAF10107DA4501D100F061F8AFF26B
:10005000090EBAE80F0013F0010F18BFFB1A43F0A6
:1000600001031847DCEE00000CEF00000A444FF0DB
:10007000000C10F8013B13F0070408BF10F8014B07
:100080001D1108BF10F8015B641E05D010F8016B4C
:10009000641E01F8016BF9D113F0080F1EBF10F8B0
:1000A000014BAD1C0C1B09D16D1E58BF01F801CBD3
:1000B000FAD505E014F8016B01F8016B6D1EF9D556
:1000C0009142D6D370470000103A24BF78C878C157
:1000D000FAD8520724BF30C830C144BF04680C604E
:1000E000704700000023002400250026103A28BF96
:1000F00078C1FBD8520728BF30C148BF0B6070479A
:100100001FB59DE803000BF0B7FE1FBD10B510BD75
:100110000BF046FF1146FFF7F3FF00F0FEF80BF07F
:1001200064FF03B4FFF7F2FF03BC09F026FA0000F6
:10013000052828BF70474FEA80007844D0F802F0C5
:10014000990100005F010000FD0100001D02000098
:100150003D0200004FF0010080F3148800DF0A4CDC
:100160004FF00105257077460BF07AFCBE46074E2E
:100170003668074C2660D6F800D001BC05490860F7
:10018000BDE8F00F704700BFF3010010040200103B
:10019000FC010010180200104FF0080282F31188D1
:1001A00000B50BF05DFC5DF804EB2DE9F00F0E4996
:1001B000086801B40D4A1268C2F800D00C4C0D4D0D
:1001C0002E7826700C4E3668084C2660D6F800D083
:1001D00001BC086000280CBF0022082282F31188AD
:1001E000BDE8F00F704700BF18020010FC010010BE
:1001F000E8010010E9010010040200100649086837
:1002000000F101004FF0080282F31188002808BFB6
:1002100070470860704700BF180200100649086860
:1002200000281CBF01380860002818BF70474FF035
:10023000000282F311887047180200104FF000008E
:1002400080F3148870474FF0010080F314887047E2
:1002500088476FF0FF000AF02DFA0000002400BF6D
:100260007548006840F0020073496339C1F86300C3
:10027000022071491831086014E00A200AF0D4FB0A
:1002800001F030F9601C84B2322C04D102206A499A
:100290001C31086006E0642C04D102206649183144
:1002A00008600024E9E700BF01F0C7F903E001F0AE
:1002B00005F901F009FBFAE700BF02F098FF01E041
:1002C00005F0E1FBFCE700BF00F09EFD05E001F05A
:1002D000FFF800F01EFE59490870F8E7002440F2CC
:1002E000051157480BF0B0FC00BF15E0002240F2AA
:1002F0000511534800F04CF984B24FF6FF70844268
:100300000AD021464E4800F097F980B2041E03DD62
:1003100021464B4800F01DFCE8E708B5002000909E
:1003200008F0FCFC08F0C6FC08F0E5FC00F056FD07
:1003300000F043FF01F08CF807F0BFFF01F01EFE54
:100340000AF014FD6946102009F050FA3D49086092
:1003500069460B2009F04AFA3B490860002009F081
:100360003FFF3A490860002009F03AFF3849086029
:10037000002009F035FF374908601021364809F0A0
:10038000C4FC364908601021354809F0BEFC3549E7
:100390000860002009F024FF33490860002009F0BC
:1003A0001FFF32490860002009F01AFF3049086039
:1003B00069460D2009F01AFA2E490860002009F05C
:1003C0000FFF2D490860002009F00AFF2B49086043
:1003D00069460F2009F00AFA2949086069460A208F
:1003E00009F004FA274908601423274A0021AFF2D4
:1003F00093100AF0BEF81523244A0021AFF23910F9
:100400000AF0B7F81923224A0021AFF265100AF06A
:10041000B0F817231F4A0021AFF23F100AF0A9F8E5
:1004200018231D4A0021AFF26F100AF0A2F80AF05B
:1004300060FD002008BD000063C00920100100100D
:10044000D0150010CC000010D0000010D400001017
:1004500004010010D800001050150010DC0000103E
:1004600090150010E0000010E4000010E8000010FB
:10047000EC000010F0000010F4000010F800001074
:10048000FC000010000100102C0500104C0B0010A7
:100490004C0F00103C0800104C1500100146FF20C6
:1004A00008704870881C704710B50146002400236E
:1004B00000220C4600BF04E0E05C104482B2581CED
:1004C00083B24878401C9842F6DCD04382B2D2B264
:1004D0004878401C22544878001D10BD70B5014674
:1004E0004878801ECE1C345C0D460022002300BFDD
:1004F00004E0E85C104482B2581C83B24878401C87
:100500009842F6DCD04382B2D2B2944201D10120AB
:1005100070BD0020FCE72DE9F04106460F46154668
:1005200000243C88022C08DAFF2D04D12046611CEF
:100530008CB2355429E0002427E0032C08DAFE2D84
:1005400004D12046611C8CB235541EE000241CE00E
:10055000052C04D22046611C8CB2355415E020468F
:10056000611C8CB2355406F1020898F80100001D98
:10057000A04209D13C804046FFF7B0FF10B10020F7
:10058000BDE8F0810120FBE700BF3C800220F7E7D7
:10059000F8B505460E46174600240020009000BF1F
:1005A0000AF0F0FAF949086000F018FB04460AF076
:1005B000E9FAF6490968401A642801D90020009038
:1005C000224669462846FFF7A6FFC0B20446022825
:1005D000E6D0012C02D14FF6FF70F8BDBDF8000047
:1005E000FBE770B505460C46287800F0400038B1AE
:1005F0000120E7490870208840F04000208006E094
:100600000020E3490870208820F0400020802878EE
:1006100000F0200038B1012000F035FD208840F0C6
:100620002000208006E0002000F02DFD208820F032
:1006300020002080002070BD2DE9F84F8246002464
:100640000025002000900027002680460AF10204C1
:100650002546A07819287DD2DFE800F07C0D6835AA
:100660007C7C7C7C1826348CC5FBFAF9F8F77CF688
:10067000F5FCF3F2F100A07840F08000A8700220B1
:1006800068702846FFF710FF0090FCE1012000F0A1
:10069000FAFCA07840F08000A8700220687028461C
:1006A000FFF702FF0090EEE1002000F0ECFCA078E4
:1006B00040F08000A870022068702846FFF7F4FE22
:1006C0000090E0E100BF04F103086078C01EC0F3B1
:1006D0004F073E460CE07000401EE11C095CE01C28
:1006E00010F8160001EB002028F81600701E86B2E4
:1006F000002EF0DCE078A8F80000A0780A2805D1E8
:10070000781C81B2E01C06F0EEFE04E0781C81B299
:10071000E01C06F08FFEA07840F08000A870022058
:1007200068702846FFF7C0FE0090ACE1002610E09C
:10073000E21C731C12F803C0B31CD25C0CEB022148
:10074000E21C925D501C4FF4C07200F067FCF01C7C
:1007500086B200E096E16078801EB042E8DCA078C6
:1007600040F08000A870022068702846FFF79CFEC9
:10077000009088E14FF000096078092800D282E1FA
:1007800004F10309A17AA9F80C10617AA9F80A10FA
:10079000207AA9F80800A179E07901EB0020A9F8F6
:1007A00006006079A9F804002079A9F80200E07831
:1007B000A9F8000001F0A9FFE078022101F006FC91
:1007C000744908800722E11C7248008801F0ACFDE2
:1007D000A07840F08000A870022068702846FFF7DB
:1007E00063FE00904FE104F103086078C01EC0F37F
:1007F0004F073E460CE07000401EE11C095CE01C07
:1008000010F8160001EB002028F81600701E86B2C2
:10081000002EF0DCE078A8F80000781C82B2E11C21
:100820005C48008801F080FDA07840F08000A8704E
:10083000022068702846FFF737FE009023E109E1A7
:10084000F8E0A9E006E050E04EE08FE080E071E0E3
:1008500028E03AE004F103086078801EC0F34F07F7
:1008600000260CE0E01C10F816207000401CE11C73
:10087000085C02EB002028F81600701C86B2BE420D
:10088000F0DB3A46E11C4348008801F04DFDA078BA
:1008900040F08000A870022068702846FFF704FE30
:1008A0000090F0E03B48008801F0D5FE4FF6FF7065
:1008B00038490880A07840F08000A8700220687055
:1008C0002846FFF7F1FD0090DDE02179E07806F0A1
:1008D00093FDA07840F08000A87002206870284640
:1008E000FFF7E2FD0090CEE0CDE004F10309E178EE
:1008F000207901EB002000B2A9F800006179A0790D
:1009000001EB002000B2A9F80200E179207A01EBA6
:10091000002000B2A9F80400484606F04EFDA07879
:1009200040F08000A870022068702846FFF7BCFDE8
:100930000090A8E0012016490870A07840F08000DF
:10094000A870022068702846FFF7AEFD00909AE07C
:1009500000200F490870A07840F08000A8700220A5
:1009600068702846FFF7A0FD00908CE005F10309B0
:10097000484601F0DBF9A07840F08000A870142010
:1009800068702846FFF790FD00907CE00801001099
:10099000110100100C01001004F103086078801EA2
:1009A000C0F34F0700260CE0E01C10F81620700082
:1009B000401CE11C085C02EB002028F81600701CAB
:1009C00086B2BE42F0DB04F1030B04F1830932214D
:1009D00048460BF017F94946584606F044FB49468D
:1009E000584606F0B8FD4946584601F0FFF9494619
:1009F000584606F04BFC49465846FFF7F2FD49467B
:100A0000584606F0A0FE002607E006F18000E11C33
:100A1000095CE81C8155701C86B2322EF5D3A07893
:100A200040F08000A870342068702846FFF73CFD35
:100A3000009028E005F10309484600F06BFDA0781E
:100A400040F08000A870022068702846FFF72CFD57
:100A5000009018E005F1030805F1050B05F11109F7
:100A6000484601F08BF95946404606F08EFEA078C4
:100A700040F08000A8701C2068702846FFF714FD25
:100A8000009000E000BF00BF0098BDE8F88F0000B4
:100A900070B50024002600250AF080F9D248846849
:100AA00004F0010010B10AF087F970BDC4F34204EC
:100AB000012C06D0022C0AD0032C07D0062C1CD106
:100AC00006E0CA48006809F052FC17E000BF00BF0A
:100AD000C5484069C5B20BE0C3480068C6B2A6F578
:100AE0008071C348006809F035FABF484069C5B253
:100AF00005F001000028EFD100E000BF00BF0AF0C0
:100B00005BF900BFD1E710B58320B749C86007245F
:100B1000FE2088622046E11704EB11610912B24AF7
:100B20005160E11704EB11610912A4EB012111607E
:100B300003201146C860C7208860072048600A2249
:100B4000AFF2B301152008F0CAF9152008F0C6FA73
:100B500010BDF8B506460C46002500270020009081
:100B600006B10CB90020F8BD6A460021A148006812
:100B700008F0E3FE00BF05E06A4600219B480068DC
:100B800009F0A4FB9848406900F020000028F3D049
:100B900005F11000A04201DD274602E005F110003A
:100BA00087B204E0705D90490860681C85B2BD4260
:100BB000F8DBA542DFDB05E06A4600218B480068D0
:100BC00009F084FB8848406900F020000028F3D039
:100BD0008848006808F065FF2046C4E738B5002063
:100BE000009000246A4600218148006809F04AF913
:100BF00004469DF8000008B1FF2038BDE0B2FCE7D4
:100C000070B50024002600250AF0C8F87A488468E8
:100C100004F0010010B10AF0CFF870BDC4F3420433
:100C2000012C06D0022C0AD0032C07D0062C1CD194
:100C300006E07248006809F09AFB17E000BF00BFA9
:100C40006D484069C5B20BE06B480068C6B2A6F5B6
:100C500080716B48006809F07DF967484069C5B24A
:100C600005F001000028EFD100E000BF00BF0AF04E
:100C7000A3F800BFD1E7F8B506460C4600250027CB
:100C80000020009006B10CB90020F8BD00BF05E0BF
:100C90006A4600215948006809F018FB5648406927
:100CA00000F020000028F3D005F11000A04201DD83
:100CB000274602E005F1100087B204E0705D4E495E
:100CC0000860681C85B2BD42F8DBA542DFDB05E0A9
:100CD0006A4600214948006809F0F8FA4648406928
:100CE00000F020000028F3D02046CEE738B50020E1
:100CF000009000246A4600214148006809F0C2F8CB
:100D000004469DF8000008B1FF2038BDE0B2FCE7C2
:100D100070B505460024E5B1012D04D0022D19D08F
:100D2000032D35D11EE03448406900F0400406E050
:100D3000012009F079FE3048406900F04004002CA1
:100D4000F6D080202F49C86101202E491D3108604E
:100D50001FE000BF80202B498861012029491931FB
:100D6000086016E02448406900F0400406E00120D5
:100D700009F05AFE2048406900F04004002CF6D0EB
:100D800080202049886101201E491931086000E057
:100D900000BF00BF70BD10B583201749C860002098
:100DA000486002200860952088620320C860C72040
:100DB0008860072048608020124908600120491C93
:100DC00008600020FFF7A4FF0A22AFF2CB11182021
:100DD00008F085F8182008F081F910BD10B5FFF76C
:100DE000DAFFFFF790FE10BD00C00040D4000010F5
:100DF000DC000010CC00001000C00940D80000103A
:100E0000E000001000C0092070470146FF20087074
:100E10004870881C704710B501460024002300224A
:100E20000C4600BF04E0E05C104482B2581C83B260
:100E30004878401C9842F6DCD04382B2D2B248785F
:100E4000401C22544878001D10BD70B501464878FA
:100E5000801ECE1C345C0D460022002300BF04E03F
:100E6000E85C1044C2B2581C83B24878401C9842D7
:100E7000F6DCD043C2B200BF944201D1012070BD64
:100E80000020FCE72DE9F04105460F4616460024F8
:100E90003C88022C08DAFF2E04D12046611C8CB25B
:100EA0002E541EE000241CE0052C04D82046611CB2
:100EB0008CB22E5415E02046611C8CB22E5405F1E4
:100EC000020898F80100C01CA04209D13C804046AD
:100ED000FFF7BBFF10B10020BDE8F0810120FBE768
:100EE00000BF3C800220F7E7F8B505460E461746DE
:100EF00000240020009000BFFFF7F8FE04462246C1
:100F000069462846FFF7BEFF04460228F4D00020B9
:100F1000F8BDF8B500240027002500260020009029
:100F20009948007808B36A4600219848006808F09C
:100F300004FD97480078A0B10020FFF7E9FE95482E
:100F4000FFF763FF0446FE2020700520A0700220FA
:100F500060702046FFF75FFF074639468D48FFF770
:100F60008AFE8A48006808F09CFD00BF80218A48FC
:100F700006F0CBFC00B2064610F1020FF6D0002EB0
:100F800044DD6A4600218148006808F0D6FC8048AC
:100F90000078002832D00020FFF7BAFE00252AE0B2
:100FA0007C48FFF732FF0446681C20700420A070C4
:100FB000072060701E20E070774810F8151021712E
:100FC00030F81500010A617105EB6600724911F8ED
:100FD0001010A17105EB66006F4931F81000010A8D
:100FE000E1712046FFF717FF074639466948FFF7CA
:100FF00042FE681C85B2B5EB660FD1DB6348006822
:1010000008F04FFD01206049087004E0701C10B921
:1010100000205D4908705C480078F8BD2DE9F84370
:1010200007460D4616460024A04600200090594869
:10103000FFF7EBFE04466A4600215448006808F0BA
:101040007CFC53480078B8B10020FFF761FE2770A0
:101050000320A070072060701E20E0702571290A0F
:101060006171A671310AE1712046FFF7D4FE804616
:1010700041464848FFF7FFFD4448006808F011FD6D
:101080000020BDE8F883F8B50546002400260020BE
:1010900000903F480078854201D10020F8BD6A46A3
:1010A00000213A48006808F048FC002D4BD0002091
:1010B000FFF72EFE3748FFF7A8FE0446FE202070FB
:1010C0000320A070042060701820E07001212171BD
:1010D0002046FFF7A0FE064631462E48FFF7CBFD1F
:1010E0002C48FFF792FE0446FE2020700320A070DB
:1010F000072060701A20E0700021217161711821B1
:10110000A171E1712046FFF786FE0646314621486F
:10111000FFF7B1FD1F48FFF778FE0446FE20207060
:101120000320A070052060703020E0702021217124
:10113000002161712046FFF76EFE064631461548D4
:10114000FFF799FD18E00020FFF7E2FD1148FFF7D7
:101150005CFE0446FE2020700320A0700420607016
:101160001820E070002121712046FFF754FE06464A
:1011700031460848FFF77FFD0548057003480068C1
:1011800008F08FFC002089E70E010010D00000104D
:101190000F01001056170010D616001010B509F0F8
:1011A000FDFD0320A649086200204861A5480068AB
:1011B00009F0DDF809F000FE10BD10B50120A249CC
:1011C0000860891EC1F81A00CF209D4908600020E0
:1011D00048600420086100204861022008624860DD
:1011E0000B22AFF247011E2007F079FE1E2007F008
:1011F00075FF10BD2DE9FE4F0746884616460025AF
:101200000024A146A2460020009082252D0605F06C
:101210007F458E48384045EAC00507F07F0045EA23
:1012200040054FF6FF7000EA1540ADF80400A8B283
:10123000ADF80600012084491C31086000BFB01CD5
:10124000001B082802DD4FF0080903E0B01C001B5A
:101250001FFA80F912E0022C05DA01A830F8140018
:101260007749886004E0A01E38F81000744988604F
:10127000601C84B2A9F101001FFA80F97048C068AF
:1012800000F0020010B1B9F1000FE4DC03206C495A
:101290000862022048616A4600216A48006809F035
:1012A00015F804E0664880681FFA80FA00BF6448B9
:1012B000C06800F004000028F4D1B01C8442BEDBFA
:1012C0000120614918310860142009F0ADFB304657
:1012D000BDE8FE8F2DE9FE4F804689461646002464
:1012E0000025A2460027A346002000905224240691
:1012F00004F07F44554808EA000044EAC00408F0BE
:101300007F0044EA40044FF6FF7000EA1440ADF855
:101310000400A0B2ADF806004FF6FF70ADF808006B
:10132000ADF80A00012048491C31086000BF301D9B
:10133000401B082802DD4FF0080A03E0301D401B67
:101340001FFA80FA11E0042D05DA01A830F8150023
:101350003B49886003E04FF6FF7039498860681C9C
:1013600085B2AAF101001FFA80FA3548C06800F082
:10137000020010B1BAF1000FE5DC03203049086229
:10138000022048616A4600212E48006808F09EFF4E
:101390000AE02B4880681FFA80FB042F02DB381F0D
:1013A00029F810B0781C87B22548C06800F0040006
:1013B0000028EED1301D8542B9DB012022491831C9
:1013C0000860381F80B2BDE8FE8F2DE9F041064667
:1013D0000F4615464FF0000800240FE0281B802818
:1013E00001DD802000E0281B1FFA80F807EB440194
:1013F00030194246FFF7FEFE204484B2AC42EDDBDA
:10140000BDE8F0812DE9F04106460F4615464FF044
:10141000000800240FE0281B802801DD802000E068
:10142000281B1FFA80F807EB440130194246FFF7EA
:1014300051FF204484B2AC42EDDBBDE8F0810000F6
:1014400000800840E400001002C0092080FF07006F
:101450001748184908600020C86070472DE9F0411E
:1014600005460E4600270024134812490860022052
:1014700009F0DAFA0F4F103710E057F8240000F0A7
:10148000004030B157F82400C0F30B1025F81400C9
:1014900002E0002025F81400601C84B2B44201DA96
:1014A000082CEADB0248034908602046BDE8F081C9
:1014B00030012000004003403001210008B5002029
:1014C00000906A4600210F48006808F0FFFE08BD42
:1014D00008B5002000906A4600210B48006808F01B
:1014E000F5FE08BD10B50948007818B10548006838
:1014F00008F03DFF0648007818B10348006808F07E
:1015000036FF10BDE8000010EC00001011010010C3
:10151000100100107CB504464FF6FF754AF6AA206C
:101520000190002000904FF40C5060800146E18053
:101530006181E089404201B2E181608A404201B2AA
:101540006182E08A404201B2E18201F0DEF80221CC
:10155000FD2000F03BFD85B2012201A9284600F0E4
:10156000E3FE12222146284600F0DEFE01F0CDF80F
:101570006A460021FE48006808F0DFF9242221466F
:10158000FC480AF0C8FAFA48006808F08AFA012014
:101590007CBDF8B504464FF6FF752846009000263E
:1015A00001F0B3F80121FD2000F010FD85B2012209
:1015B0006946284600F03AFDBDF800004AF6AA2127
:1015C000884205D124222146284600F02FFD01261D
:1015D00001F09BF83046F8BD10B504462046FFF7F1
:1015E000D8FF00B110BD002020804FF40C50608067
:1015F0000020A0804FF40C51E18020816181A08106
:101600004FF47E41E181002121824FF47E416182CD
:101610000021A1824FF47E41E18220834FF40071CA
:1016200061830021A1834FF40071E18300212184B3
:101630004FF40071618400BFD4E71CB50020019015
:101640004FF4FA7009F0F0F934200190012001AB59
:101650000022014600903C2006F047FE60200190E9
:10166000012001AB0246014600903C2006F03DFE01
:1016700000200190012001AB0222014600903C2095
:1016800006F033FE4FF4FA7009F0CEF9082001900D
:10169000012001AB2D2201460090A62006F025FE78
:1016A00080200190012001AB2E2201460090A6204F
:1016B00006F01BFE0B200190012001AB31220146F8
:1016C0000090A62006F011FE6F200190012001ABD2
:1016D000202201460090D22006F007FE042001904F
:1016E000012001AB212201460090D22006F0FDFD31
:1016F00008200190012001AB222201460090D22057
:1017000006F0F3FD10200190012001AB23220146D9
:101710000090D22006F0E9FD10200190012001ABDD
:10172000242201460090D22006F0DFFD92480021DD
:10173000016041608160122190480AF063FA24211F
:101740008C480AF05FFA28218D480AF07DFA0020C3
:101750008C4908608C4908608C4908608C49086095
:101760008448FFF739FF00201CBD2DE9F04F85B0FC
:10177000854800680CF078F906460BF0C1FA04467B
:101780000BF086FB0490804800680CF06DF906466B
:101790000BF004FB04460BF07BFB03907B480068D6
:1017A0000CF062F906460BF0ABFA04460BF070FB46
:1017B0000290764800680CF057F906460BF0EEFAF6
:1017C00004460BF065FB01906D49086A04990CF022
:1017D0000FFB064601990CF00BFB04466849C869EB
:1017E00003990CF005FB804601990CF001FB0646BD
:1017F0006349886902990CF0FBFA074631460CF000
:101800005FF9054621460CF05BF982465C49086A9F
:1018100003990CF0EDFA04465949C86904990CF093
:10182000E7FA054621460CF0E1FB834650460CF0F2
:101830001BF906460F46594656480CF0D9FA009057
:101840000CF012F9804632463B460BF099F90446FB
:101850000BF01EFB4A494862486A00210CF094FADA
:101860000DD24749486A0CF0FFF806464A4A4B4BEE
:101870000BF040FB04460BF00BFB4149486205B0FE
:10188000BDE8F08F0246002100BF13E032F91100DD
:1018900040F2FE73984202DD184622F8110032F938
:1018A00011003F4B984203DA4FF6020022F8110074
:1018B000481C81B20329E9DB002070470146002063
:1018C00070470146002070472DE9FF41002001903C
:1018D000062002AB0322012100903C2006F04AFDC5
:1018E00001AA00212248006808F027F89DF80900A5
:1018F0009DF8081040EA012000B2204988819DF837
:101900000D009DF80C1040EA012001B21B48C18176
:101910009DF80B009DF80A1040EA012001B217481B
:1019200001820C30FFF7AEFF1148006808F0B9F8EB
:10193000062002AB322201210090A62006F01AFDFB
:1019400001AA00210A48006807F0F7FF9DF8080087
:101950009DF8091040EA012000B20849C8809DF8AE
:101960000A009DF80B1040EA012001B2034819E07B
:10197000F00000108217001064170010701700109C
:10198000A817001020010010140100101801001009
:101990001C010010000080BF50455254FB2119402B
:1019A00002F8FFFF01819DF80C009DF80D1040EA40
:1019B000012001B2FE484181801DFFF77FFFFD48F5
:1019C000006808F06EF8062002ABA8220121009002
:1019D000D22006F0CFFC01AA0021F648006807F0EB
:1019E000ACFF9DF808009DF8091040EA012000B204
:1019F000EF4908809DF80A009DF80B1040EA01208D
:101A000000B2EB4948809DF80C009DF80D1040EAAB
:101A1000012000B2E64988800846FFF752FFE548FA
:101A2000006808F03EF801AA0021E248006807F0CB
:101A300084FFE149B1F90E000CF08EF90546DC494E
:101A4000B1F90610DC4AB2F90C20881A0CF084F9BE
:101A5000064629460CF0CCF904464FF088410CF0BC
:101A60009DF8D649C860D449B1F912000CF074F958
:101A70000546CF49B1F90820CF49B1F91010501AE5
:101A80000CF06AF9064629460CF0B2F904464FF00C
:101A900088410CF083F8C9490861C749B1F91600BB
:101AA0000CF05AF90546C249B1F90A20C249B1F908
:101AB0001410501A0CF050F9064629460CF098F90B
:101AC00004464FF088410CF069F8BC494861BA49B6
:101AD000B1F902000CF040F90646B549B1F9001021
:101AE000B54AB2F90020881A0CF036F9074631469B
:101AF0000CF07EF905464FF088410CF04FF8044693
:101B0000AF490CF04BF8AD490860AB49B1F906009C
:101B10000CF022F90646A649B1F90210A64AB2F91C
:101B20000420881A0CF018F9074631460CF060F9C9
:101B300005464FF088410CF031F80446A0490CF0FE
:101B40002DF89E4948609C49B1F90A000CF004F94F
:101B500006469749B1F90410974AB2F90820881A45
:101B60000CF0FAF8074631460CF042F905464FF002
:101B700088410CF013F8044691490CF00FF88F4996
:101B800088608D49B1F91A000CF0E6F805468849DD
:101B9000B1F90C10884AB2F91820881A0CF0DCF858
:101BA000064629460CF024F904464FF088410BF014
:101BB000F5FF824988618049B1F91E000CF0CCF82C
:101BC00005467B49B1F90E207B49B1F91C10501A2A
:101BD0000CF0C2F8064629460CF00AF904464FF00C
:101BE00088410BF0DBFF7549C8617349B1F92200E8
:101BF0000CF0B2F806466E49B1F910206E49B1F901
:101C00002010501A0CF0A8F8054631460CF0F0F8F8
:101C100004464FF088410BF0C1FF684908626548EF
:101C2000006807F03EFF674801680068401C654A8D
:101C30001060052904D3002011460860FFF795FDC8
:101C400006F0B3FE06F072FC06F093FD06F062FFAC
:101C500001AA00215748006807F06FFE5A48006843
:101C60000BF002FF064600224FF081430BF0ECFB25
:101C700004460BF053FB00B25449088054480068F6
:101C80000BF0F2FE064600224FF081430BF0DCFB26
:101C900004460BF043FB00B24C4948804D480068B5
:101CA0000BF0E2FE064600224FF081430BF0CCFB26
:101CB00004460BF033FB00B244498880464908686B
:101CC0000BF0D2FE064600224FF081430BF0BCFB26
:101CD00004460BF023FB00B23C49C8803E494868EB
:101CE0000BF0C2FE064600224FF081430BF0ACFB26
:101CF00004460BF013FB01B2344801813649886871
:101D00000BF0B2FE064600224FF081430BF09CFB25
:101D100004460BF003FB01B22C48418125480068C2
:101D200007F0BFFE002004B0BDE8F08138B50446DE
:101D3000002000906A4600211E48006807F0FDFD63
:101D40001B48008820801A48408860801848808896
:101D5000A0801748C088E080154801892181418909
:101D600061818089A0811248C189E181018A218233
:101D70001048006807F095FE002038BD38B50446CD
:101D8000002000906A4600210A48006807F0D5FD4F
:101D90000E48008820800D48408860800B4880886D
:101DA000A0800A48C088E08008480189218115E0A8
:101DB00070170010F000001082170010A817001014
:101DC00000007A4420010010140100106417001074
:101DD000180100101C010010C41F0010418961810E
:101DE0001248006807F05DFE002038BD38B5054692
:101DF0000C46002000906A4600210C48006807F05D
:101E00009CFD0B48008820830948418861838188B4
:101E1000A183C188E18301892184418961840348C8
:101E2000006807F03EFE002038BD0000F000001002
:101E30006417001030B503460BB9002030BD0024F4
:101E400000219A0F9B00012A01D9491C521A0F2523
:101E50000EE04900920002EB93720C46012000EB69
:101E600044049B00A24201D3121B491C681E85B288
:101E7000002DEEDC481C00B2E0E70146002910DA34
:101E800011F5497F06DA01F5C9603A4A32F91000C6
:101E9000404204E037484A4230F91200404200B262
:101EA0007047B1F5497F05DDC1F5C960314A32F9A6
:101EB0001000F5E72F4830F91100F1E7014600293D
:101EC00011DA11F5497F07DA4842A0F54970294A2D
:101ED00032F91000404204E0264A01F5497032F917
:101EE000100000B27047B1F5497F06DDA1F54970D9
:101EF000204A32F91000404204E0C1F549701D4A01
:101F000032F9100000B2EDE710B502460B46002191
:101F10002BB90AB9481E10BD4FF4497119E002FBF4
:101F200002F1890203FB03F002FB020091FBF0F0D7
:101F3000C0F50071002906DA0F484C4230F9140050
:101F400000F5497004E00C4830F91100C0F5497003
:101F50004110002A06DA002B02DAA1F5C96107E078
:101F6000494205E0002B02DAC1F5C96100E000BF7B
:101F700008B2D0E7C6E1000010E8000010B5002468
:101F800040F21231FA4809F03DFE00BF0CE04FF676
:101F9000FF7004EB440101EBC411F54A02EB41016F
:101FA000A1F80401601C84B2032CF0DB1021F1487D
:101FB00009F028FE002406E04FF6FF70ED4921F8F5
:101FC0003400601C84B2022CF6DB10BD10B5024652
:101FD0000B46002100BF1FE0E64830F831004FF605
:101FE000FF74A04216D102EB820004EA4000E14CEB
:101FF00024F83100204630F8310004EBC104608041
:102000000020DC4C04EBC104A080DA4800EBC100E6
:10201000C38003E0481C01B20229DDDB00BF0229B6
:1020200001DA084610BD4FF0FF30FBE72DE9F0471D
:1020300004460F4616460025A846CE4830F8340020
:102040004FF6FF71884202D1681EBDE8F08729E192
:10205000002511E005EB450000EBC510C44901EB7C
:102060004000B0F80401C34901EBC401498888422B
:1020700000D103E0681C85B2032DEBDB00BF032D0C
:1020800059DABC4800EBC4008088C0F18000B0423F
:102090001BDB05EB450000EBC510B54B03EB400027
:1020A000B44B03EBC4039B8800EB4301720038463A
:1020B00009F031FDAF4800EBC40080883044AD49E1
:1020C00001EBC40188800026ECE005EB450000EB45
:1020D000C510A74B03EB4000A64B03EBC4039B8842
:1020E00000EB4301A34800EBC4008088C0F18000EE
:1020F0004200384609F00FFD9E4800EBC40080887E
:10210000C0F1800007EB40079A4800EBC4008088CC
:10211000C0F18000301A86B20020964901EBC4015C
:102120008880944800EBC4004088401C914901EB32
:10213000C4014880B6E04FF00009CA46002523E0FC
:1021400005EB450000EBC510894901EB4000B0F8F4
:1021500004014FF6FF71884200D117E005EB4500FE
:1021600000EBC510824901EB4000B0F80201484580
:1021700008DD05EB450000EBC51001EB4000B0F8B1
:102180000291AA46681C85B2032DD9DB00BF032D3E
:1021900001DA284600E050460546764800EBC400C8
:1021A000408805EB450101EBC511714A02EB410185
:1021B000A1F80401002005EB450101EBC51102EB7C
:1021C0004101A1F8020105EB450000EBC5101146E5
:1021D00001EB4000B0F804014FEAC01805EB4500E0
:1021E00000EBC51002EB400180224046FFF772F879
:1021F000604800EBC4008088C0F18000B0421BDB67
:1022000005EB450000EBC510594B03EB4000594B63
:1022100003EBC4039B8800EB43017200384609F0CE
:102220007AFC544800EBC40080883044514901EBEB
:10223000C4018880002634E005EB450000EBC510A2
:102240004B4B03EB40004B4B03EBC4039B8800EB71
:102250004301484800EBC4008088C0F18000420080
:10226000384609F058FC434800EBC4008088C0F1B0
:10227000800007EB40073F4800EBC4008088C0F1B6
:102280008000301A86B200203A4901EBC4018880F0
:10229000384800EBC4004088401C364901EBC401BB
:1022A000488000BF002E3FF7D3AE002538E005EB95
:1022B000450000EBC5102E4901EB4000B0F80401C9
:1022C0004FF6FF71884229D005EB450000EBC510A1
:1022D000274901EB4000B0F802014FF6FE71884239
:1022E00009DD05EB450000EBC510214901EB40007D
:1022F000B0F8020109E005EB450000EBC5101C49F0
:1023000001EB4000B0F80201401C05EB450101EB78
:10231000C511174A02EB4101A1F80201681C85B200
:10232000032DC4DB002090E62DE9F04705460F465B
:1023300016460024A0460F4830F835004FF6FF71CE
:10234000884202D1601EBDE8F08742E1002415E01A
:1023500004EB440000EBC410054901EB4000B0F869
:102360000401044901EBC5014988884204D107E012
:10237000D0170010E21A0010601C84B2032CE7DBB7
:1023800000BF032C70DAE74800EBC5008088C0F17D
:102390008000B0421BDB04EB440101EBC411E24BB3
:1023A00003EB4101DF4B03EBC5039B8801EB4300CB
:1023B0007200394609F0AFFBDA4800EBC5008088AF
:1023C0003044D84901EBC5018880002601E104EBC7
:1023D000440101EBC411D44B03EB4101D14B03EB9E
:1023E000C5039B8801EB4300CE4901EBC5018988F9
:1023F000C1F180014A00394609F08DFB04EB44002D
:1024000000EBC410C84901EB4000B0F804014FEAEA
:10241000C01804EB440000EBC4100A4602EB400174
:1024200080224046FEF7E6FEBE4800EBC5008088ED
:10243000C0F1800007EB4007BA4800EBC500808878
:10244000C0F18000301A86B20020B64901EBC50108
:102450008880B44800EBC5004088401CB14901EBBE
:10246000C5014880B5E0FFE74FF0000AD1460024DF
:1024700023E004EB440000EBC410AB4901EB400047
:10248000B0F804014FF6FF71884200D117E004EB69
:10249000440000EBC410A44901EB4000B0F8020175
:1024A000504508DD04EB440000EBC41001EB400094
:1024B000B0F802A1A146601C84B2032CD9DB00BF96
:1024C000032C00DB4C46974800EBC500408804EB2A
:1024D000440101EBC411944A02EB4101A1F804014B
:1024E000002004EB440101EBC41102EB4101A1F80F
:1024F00002018C4800EBC5008088C0F18000B0422A
:102500001BDB04EB440101EBC411134603EB410157
:10251000844B03EBC5039B8801EB430072003946F3
:1025200009F0F9FA7F4800EBC500808830447D4906
:1025300001EBC501888000264AE004EB440000EB73
:10254000C410794B03EB4000764B03EBC5039B882B
:1025500000EB4301734800EBC5008088C0F18000A8
:102560004200384609F0D7FA04EB440000EBC410EF
:102570006D4901EB4000B0F804014FEAC01804EBCC
:10258000440000EBC4100A4602EB400180224046A2
:10259000FEF730FE634800EBC5008088C0F1800084
:1025A00007EB40075F4800EBC5008088C0F1800062
:1025B000301A86B200205B4901EBC501888059487A
:1025C00000EBC5004088401C564901EBC50148801E
:1025D00000BF002E3FF7BAAE002438E004EB440001
:1025E00000EBC410504901EB4000B0F804014FF675
:1025F000FF71884229D004EB440000EBC4104A4923
:1026000001EB4000B0F802014FF6FE71884209DD8F
:1026100004EB440000EBC410434901EB4000B0F868
:10262000020109E004EB440000EBC4103E4901EB59
:102630004000B0F80201401C04EB440101EBC4115E
:10264000394A02EB4101A1F80201601C84B2032C5B
:10265000C4DB002077E670B504460025002631482B
:1026600030F834004FF6FF71884201D1681E70BD0A
:102670002C4800EBC400807900F0020090B3294898
:1026800000EBC400808868B3002511E005EB45002D
:1026900000EBC510244901EB4000B0F804012149CA
:1026A00001EBC4014988884200D103E0681C85B26F
:1026B000032DEBDB00BF032D14DA05EB450000EB27
:1026C000C510194901EB4000B0F80401C60105EB43
:1026D000450000EBC5100A4602EB4001802230465F
:1026E000FEF788FD4FF6FF700E4921F834000020F8
:1026F00001EBC40148800B4901EBC4018880094902
:1027000001EBC401C88000BFB1E710B5002400BFD1
:1027100004E02046FFF79FFF601C84B2022CF8DB28
:10272000002010BDE21A0010D01700102DE9F0476C
:1027300004460D4616460027B846B94630886082E2
:102740007188A182B188E182B5F90070B5F9028083
:10275000B5F904904046FFF7B1FB82464846FFF7C3
:10276000ADFB0AFB00FA4FEA6A2000B2208038462F
:10277000FFF7A4FB82464846FFF77FFB0AFB00FAFF
:102780004FEA6A20404200B260803846FFF775FB8E
:1027900082464046FFF771FB0AFB00FA4FEA6A20C7
:1027A0000FFA80FA4846FFF789FB0AFB00FA6188B6
:1027B00001EB6A2000B260803846FFF75EFB82467C
:1027C0004846FFF75AFB0AFB00FA4FEA6A2000B2BC
:1027D000A0804046FFF751FB82464846FFF76EFB5C
:1027E0000AFB00FA4FEA6A200FFA80FA3846FFF730
:1027F00065FB0AFB00FAA18801EB6A2000B2A08009
:102800004046FFF75BFB82464846FFF736FB0AFB74
:1028100000FA4FEA6A2000B2E0803846FFF74EFB2C
:1028200082464846FFF74AFB0AFB00FA4FEA6A2055
:1028300000B220814046FFF720FB82463846FFF772
:102840001CFB0AFB00FA4FEA6A200FFA80FA48469E
:10285000FFF713FB0AFB00FA218901EB6A2000B2A3
:1028600020814846FFF72AFB82463846FFF705FBE2
:102870000AFB00FA4FEA6A20404200B260814046FB
:10288000FFF7FBFA82464846FFF7F7FA0AFB00FA21
:102890004FEA6A200FFA80FA3846FFF70FFB0AFB6F
:1028A00000FA618901EB6A2000B260814046FFF7BF
:1028B000E4FA404200B2A0814046FFF7FFFA8246A8
:1028C0003846FFF7DAFA0AFB00FA4FEA6A2000B24C
:1028D000E0814046FFF7F2FA82463846FFF7EEFA0B
:1028E0000AFB00FA4FEA6A2000B220820020BDE80D
:1028F000F0872DE9F04704460D4616460027B846F6
:10290000B946308860827188A182B188E182B5F9C8
:102910000070B5F90280B5F904904046FFF7CEFA91
:1029200082464846FFF7CAFA0AFB00FA4FEA6A20D5
:1029300000B220803846FFF7C1FA82464846FFF7CA
:102940009CFA0AFB00FA4FEA6A20404200B2E0809B
:102950003846FFF792FA82464046FFF78EFA0AFBA6
:1029600000FA4FEA6A200FFA80FA4846FFF7A6FA03
:102970000AFB00FAE18801EB6A2000B2E0803846E9
:10298000FFF77BFA82464846FFF777FA0AFB00FA20
:102990004FEA6A2000B2A0814046FFF76EFA8246F5
:1029A0004846FFF78BFA0AFB00FA4FEA6A200FFA53
:1029B00080FA3846FFF782FA0AFB00FAA18901EB98
:1029C0006A2000B2A0814046FFF778FA8246484666
:1029D000FFF753FA0AFB00FA4FEA6A2000B2608060
:1029E0003846FFF76BFA82464846FFF767FA0AFB5C
:1029F00000FA4FEA6A2000B220814046FFF73DFA14
:102A000082463846FFF739FA0AFB00FA4FEA6A2095
:102A10000FFA80FA4846FFF730FA0AFB00FA2189DC
:102A200001EB6A2000B220814846FFF747FA824650
:102A30003846FFF722FA0AFB00FA4FEA6A204042C2
:102A400000B2E0814046FFF718FA82464846FFF799
:102A500014FA0AFB00FA4FEA6A200FFA80FA3846A5
:102A6000FFF72CFA0AFB00FAE18901EB6A2000B2B9
:102A7000E0814046FFF701FA404200B2A0804046A4
:102A8000FFF71CFA82463846FFF7F7F90AFB00FA0F
:102A90004FEA6A2000B260814046FFF70FFA824693
:102AA0003846FFF70BFA0AFB00FA4FEA6A2000B239
:102AB00020820020BDE8F0872DE9F04104460D4654
:102AC00016462846FFF7FAF920802846FFF7D5F981
:102AD00007463046FFF7D1F94743781200B26080CD
:102AE0002846FFF7CAF907463046FFF7E7F947439C
:102AF0007812404200B2A0800020E0803046FFF70C
:102B0000DDF920813046FFF7B8F960812846FFF7EC
:102B1000B4F9A0812846FFF7D1F907463046FFF700
:102B2000ACF947437812404200B2E0812846FFF7F3
:102B3000C5F907463046FFF7C1F94743781200B29E
:102B400020820020BDE8F081F0B503460C46154612
:102B50000021002200BF51E0002225E001EB4100EE
:102B600033F9100034F912607043401201EB410652
:102B7000761C33F91660D71C34F917707E4300EBCE
:102B8000662701EB4100801C33F91000961D34F9D3
:102B90001660704307EB602000B201EB410616445B
:102BA00025F81600501C82B2032AD7DB01EB410046
:102BB00033F91000B4F912607043401201EB410682
:102BC000761C33F91660B4F914707E4300EB662767
:102BD00001EB4100801C33F91000B4F9166070431A
:102BE00007EB602603F1120030F81100304406B202
:102BF00005F1120020F81160481C81B20329ABDBFB
:102C00000020F0BD3CB502460B46002100BF25E088
:102C100001EB410032F91000B3F90040604340126B
:102C200001EB4104641C32F91440B3F902506C43C7
:102C300000EB642401EB4100801C32F91000B3F971
:102C40000450684304EB602402F1120030F81100D4
:102C5000204400B22DF81100481C81B20329D7DBB3
:102C600000981860BDF80400988000203CBD2DE954
:102C7000F04395B00746884616461C46002507F0E7
:102C800081FF814638884042B8F80010084400B2FD
:102C9000388078884042B8F80210084400B2788042
:102CA000B8884042B8F80410084400B2B8803A46E8
:102CB00008F1060109A8FFF739FD00203880788067
:102CC0003089404200B2B8803A46B91D0FA8FFF7DC
:102CD00010FE03AA09A90FA8FFF736FF0020ADF8E0
:102CE0000400B6F900004010ADF8060070884042BC
:102CF00000B2ADF8080001A903A8FFF783FFBDF9F2
:102D000004004043BDF9061001FB0101BDF90800B4
:102D100000FB0015B6F906004043B6F9041001FBAC
:102D20000100451B2D02B6F90400B6F90610484310
:102D300095FBF0F5002D06DACD48694230F9110017
:102D400000F5497004E0CA4830F91500C0F5497033
:102D5000C0F5C96528B26082BDF90810BDF906004A
:102D6000FFF7D2F8454228B2E082B4F91200FFF72B
:102D700084F8B6F90610494300FB01F5BDF90400DB
:102D80004043BDF9061001FB0100BDF9081001FB2D
:102D9000010095FBF0F5B4F91200FFF76EF86843F7
:102DA0004FF40071A1EB2025002D06DAB0486942EE
:102DB00030F9110000F5497004E0AD4830F9150014
:102DC000C0F549704010A082B4F91600FFF776F8FC
:102DD000BDF9041000FB01F56D12BDF9081028B211
:102DE000FFF792F8A18A084400B2A082A08A40426C
:102DF00000B2A082608AA38A1844404201B2B4F9AA
:102E000016200FA8FFF758FE0020ADF84E00002155
:102E10000FA88182C18209AA03A9FFF795FEBDF917
:102E20003000002807DABDF930004042904931F9FE
:102E30001000404204E0BDF930008D4931F9100026
:102E4000404200B22082BDF93410BDF93200FFF7D4
:102E50005BF8E081BDF92410BDF92A00FFF754F8B2
:102E6000A081B8F800003880B8F802007880B8F87F
:102E700004003189401A00B2B8803A4608F10601D0
:102E800003A8FFF753FC0020ADF80400B6F90000DA
:102E900040104042ADF806007088404200B2ADF8E4
:102EA000080001A903A8FFF7ADFEBDF904004043E7
:102EB000BDF9061001FB0100BDF9081001FB010579
:102EC000B6F906004043B6F9041001FB0100451BAA
:102ED0002D02B6F90400B6F90610484395FBF0F54B
:102EE000002D06DA6248694230F9110000F5497098
:102EF00004E05F4830F91500C0F54970C0F5C965B8
:102F000028B2A080BDF90810BDF90600FEF7FCFF4D
:102F1000454228B22080B4F90400FEF7AEFFB6F9AE
:102F20000610494300FB01F5BDF904004043BDF91B
:102F3000061001FB0100BDF9081001FB010095FB23
:102F4000F0F5B4F90400FEF798FF68434FF4007100
:102F5000A1EB2025002D06DA4548694230F9110021
:102F600000F5497004E0424830F91500C0F5497099
:102F700040106080B4F90000FEF7A0FFBDF9041016
:102F800000FB01F56D12BDF9081028B2FEF7BCFF79
:102F90006188084400B260806088404200B260806E
:102FA0006088A3881844404201B2B4F900200FA8F9
:102FB000FFF782FD0020ADF84E0000210FA88182AE
:102FC000C18209AA03A9FFF7BFFDBDF9300000289F
:102FD00007DABDF930004042254931F9100040427E
:102FE00004E0BDF93000224931F91000404200B23E
:102FF000E080BDF93410BDF93200FEF785FF208175
:10300000BDF92410BDF92A00FEF77EFF6081B6F9F4
:103010000000002814DA0021002000BF0DE034F980
:103020001010C0F10B0234F8122024F81020C0F167
:103030000B0224F81210421C90B20628EFDB00BFEE
:103040006088404200B26080A088404200B2A08008
:10305000A08A404200B2A082608A404200B26082F0
:1030600007F090FDA0EB0909002015B0BDE8F08342
:1030700010E8000010B54C21FE4808F0E5FD0120E5
:10308000FC4908720121FB48017680F828100020D5
:10309000F8498864012010BD30B502460B46002176
:1030A0000024002500BF05E0505CA84201DD555C0E
:1030B0000C46491C9942F7DBA0B230BD0246B32052
:1030C0000880EC48806CB1F900305843E94B1B6B29
:1030D000984202DA0888108016E0E648806C404288
:1030E000B1F900305843E34B1B6B984204DD08886C
:1030F000404200B2108007E0DE48006BDD4B9B6C65
:1031000090FBF3F000B21080B3204880D948806C67
:10311000B1F902305843D74B5B6B984202DA4888CA
:10312000508016E0D348806C4042B1F902305843D9
:10313000D04B5B6B984204DD4888404200B250801F
:1031400007E0CC48406BCB4B9B6C90FBF3F000B29C
:1031500050804FF44970C880C648806CB1F9063081
:103160005843C44BDB6B984202DAC888D08016E023
:10317000C048806C4042B1F906305843BD4BDB6B10
:10318000984204DDC888404200B2D08007E0B948C8
:10319000C06BB84B9B6C90FBF3F000B2D0804FF447
:1031A00049730B81B348806CB1F908305843B14B77
:1031B0001B6C984202DA0B89138116E0AD48806CD3
:1031C0004042B1F908305843AA4B1B6C984204DDC9
:1031D0000889404203B2138107E0A648006CA54B62
:1031E0009B6C90FBF3F003B213810120704710B584
:1031F0000020A14908804880A04908800E21A048ED
:1032000008F000FD84219F4808F0FCFC9E48002146
:10321000016038219D4808F017FD9D48002101609C
:103220004160816042219B4808F0ECFC9A480021F3
:1032300001609A48016041600020994908809949DD
:1032400008804FF6FF70984908834FF0FF300880E0
:1032500048808880C8800146934801814181FFF7FA
:1032600009FF10BD2DE9F84304460E46002700254E
:10327000A846002000906A4600218C48006806F0AD
:103280005CFB7D4949887C4A1288891A01F5807067
:10329000C11700EB11610912A0EB0121C1F580718A
:1032A0008FB226E000BF8248006806F083FF002846
:1032B000F9D17E48006806F0F4FB6A4600217C489C
:1032C000006807F003F86A4600217848006806F0B5
:1032D00034FB69494988684A1288891A01F5807067
:1032E000C11700EB11610912A0EB0121C1F580713A
:1032F0008FB2BC42D6DC2746B046002513E038F832
:1033000015105D484288001D20F81210011F4988E1
:10331000481CC11700EB11610912A0EB0121564AAC
:103320005180681C85B2BD42E9DB0120614908700B
:103330005E48006806F0B5FB0020BDE8F8832DE983
:10334000F84F80468B4615461E4600270024A146AE
:1033500000200090824608F101001FFA80FA1DB19A
:103360000AF106001FFA80FA1EB10AF106001FFAE0
:1033700080FA6A4600214D48006806F0DEFA3E49B0
:1033800049883D4A1288891A01F58070C11700EBFF
:1033900011610912A0EB0121C1F580718FB226E005
:1033A00000BF4348006806F005FF0028F9D13F48F8
:1033B000006806F076FB6A4600213D48006806F08A
:1033C00085FF6A4600213948006806F0B6FA2A49A6
:1033D0004988294A1288891A01F58070C11700EBC3
:1033E00011610912A0EB0121C1F580718FB2BA45BC
:1033F000D6DC4746D946002413E039F814101E489D
:103400004288001D20F81210011F4988481CC1176E
:1034100000EB11610912A0EB0121174A5180601CD9
:1034200084B2BC42E9DB14494A88091D0A9821F894
:103430001200091F4988481CC11700EB11610912CD
:10344000A0EB01210C4A5180B5B30627A946002400
:1034500037E039F8141008484288001D20F812108F
:10346000011F4988481CC11700EB11610912A0EB2C
:10347000012122E0CC1B0010241C00103801001098
:10348000281E0010F41A001028010010781B0010EC
:10349000181C0010361E0010240100102C01001012
:1034A0003401001036010010B01B001000010010A4
:1034B000F80000101001001005E0FE4A5180601C69
:1034C00084B2BC42C5DBCEB10627B146002413E06E
:1034D00039F81410F7484288001D20F81210011F17
:1034E0004988481CC11700EB11610912A0EB0121AA
:1034F000F04A5180601C84B2BC42E9DB0120EE49F5
:103500000870EE48006806F0CCFA0020BDE8F88F9D
:1035100038B50446002000906A460021E74800685C
:1035200006F00BFA16E000BFE548006806F042FE20
:103530000028F9D1E148006806F0B3FA6A46002194
:10354000DF48006806F0C2FE6A460021DB480068DA
:1035500006F0F3F9D7494988D64A1288891A01F545
:103560008070C11700EB11610912A0EB0121A1428B
:10357000D9DCD248006806F094FA002038BD2DE965
:10358000F84F04468B4690469946002600250027B2
:10359000002000908246A088401C1FFA80FAB8F1F3
:1035A000000F07D00AF106001FFA80FAA08840F445
:1035B0000040A080B9F1000F07D00AF106001FFA01
:1035C00080FAA08840F48040A0806A460021BB4871
:1035D000006806F0B2F9B7494988B64A1288891AD4
:1035E00001F58070C11700EB11610912A0EB0121F8
:1035F000C1F580718EB226E000BFB148006806F0C8
:10360000D9FD0028F9D1AD48006806F04AFA6A46AB
:103610000021AB48006806F059FE6A460021A74821
:10362000006806F08AF9A3494988A24A1288891AD3
:1036300001F58070C11700EB11610912A0EB0121A7
:10364000C1F580718EB20AF10700B042D4D80726C6
:103650002746002513E037F8151096484288001DCC
:1036600020F81210011F4988481CC11700EB116196
:103670000912A0EB01218F4A5180681C85B2B54226
:10368000E9DBA08820F440465F46002513E037F8C8
:10369000151088484288001D20F81210011F498823
:1036A000481CC11700EB11610912A0EB0121814AEE
:1036B0005180681C85B2B542E9DB7E494A88091D04
:1036C0000A9821F81200091F4988481CC11700EB0D
:1036D00011610912A0EB0121764A5180A08800F403
:1036E0000040C8B106264746002513E037F81510FC
:1036F00070484288001D20F81210011F4988481C9C
:10370000C11700EB11610912A0EB0121694A518038
:10371000681C85B2B542E9DBA08800F48040C8B1DE
:1037200006264F46002513E037F8151061484288F9
:10373000001D20F81210011F4988481CC11700EB1A
:1037400011610912A0EB01215A4A5180681C85B20F
:10375000B542E9DBA08820F44040A0800120564912
:1037600008705648006806F09CF90020BDE8F88F04
:103770002DE9F84305460F4600260024A046002008
:1037800000906A4600214D48006806F0D6F8494985
:103790004988484A1288891A01F58070C11700EBE0
:1037A00011610912A0EB0121C1F580718EB226E0F2
:1037B00000BF4348006806F0FDFC0028F9D13F48EF
:1037C000006806F06EF96A4600213D48006806F080
:1037D0007DFD6A4600213948006806F0AEF835499B
:1037E0004988344A1288891A01F58070C11700EBA4
:1037F00011610912A0EB0121C1F580718EB2A88878
:10380000C01DB042D4D80726A846002413E038F8DB
:10381000141028484288001D20F81210011F498802
:10382000481CC11700EB11610912A0EB0121214ACC
:103830005180601C84B2B442E9DBAE88B8460024F3
:1038400013E038F814101B484288001D20F81210AD
:10385000011F4988481CC11700EB11610912A0EB38
:103860000121144A5180601C84B2B442E9DB01207A
:10387000114908701148006806F013F90020BDE8EE
:10388000F88301460888404200B2088048884042D8
:1038900000B248800889404200B20881488940420D
:1038A00000B248818889404200B28881C88940427C
:1038B00000B207E0241C00101001001000010010ED
:1038C000F8000010C881088A404200B20882488A85
:1038D000404200B24882C88A404200B2C882888B07
:1038E000404200B28883C88B404200B2C883488CF3
:1038F000404200B2488400207047F9480088002800
:1039000034D1F848B0F90400002810DBF54881886C
:10391000F3488182B0F91400F349B1F91C1048430F
:10392000401201B2EE488185818A418303E0002183
:10393000EB4881828185EB48B0F90600002810DB56
:10394000E848C188E648C182B0F91600E649B1F9F5
:103950001E104843401201B2E148C185C18A8183EB
:1039600038E00021DE48C182C18533E0DD48B0F98E
:103970000400002810DCDB488188D9488182B0F936
:103980001400D949B1F91C104843401201B2D4487F
:103990008185818A418303E00021D148818281852C
:1039A000D048B0F90600002810DCCE48C188CC48C9
:1039B000C182B0F91600CC49B1F91E10484340123B
:1039C00001B2C748C185C18A818303E00021C44890
:1039D000C182C185C3484088C14948820846408A9F
:1039E00008830846B0F91200BF49B1F91A104843DC
:1039F000401200B2BA49488500207047B848008894
:103A000000287DD1B748008800287AD0B448B0F9A2
:103A10000E00002818DDB348808880B10021B0482E
:103A200081828185C182C1850020AD494882488557
:103A300008830021AA484183818300207047002128
:103A4000A748818281852BE0A648B0F904000028B0
:103A500010DBA4488188A2488182B0F91400A249F1
:103A6000B1F91C104843401201B29D488185818AFA
:103A7000418315E09B48B0F90400002810DA0021CA
:103A8000974881828185C182C185002094494882FE
:103A90004885088300219248418381830020CDE737
:103AA0008F48B0F91000002818DD8E48C08880B11A
:103AB00000218B4881828185C182C185002088498F
:103AC00048824885088300218548418381830020FE
:103AD000B4E700218248C182C1852EE08148B0F957
:103AE0000600002813DB7F48C1887D48C182B0F9F9
:103AF00016007D49B1F91E104843401201B201E0A1
:103B0000D0E048E07648C185C18A818315E07548D8
:103B1000B0F90600002810DA002171488182818501
:103B2000C182C18500206E494882488508830021F2
:103B30006B4841838183002080E76948B0F90C001D
:103B40006849B1F902104843002810DD002164489B
:103B500081828185C182C185002061494882488572
:103B6000088300215E4841838183002066E75D4829
:103B700040885B4948820846408A08830846B0F975
:103B800012005949B1F91A104843401200B2544981
:103B90004885022052E75248B0F90E0000281ADD8D
:103BA0005048B0F90400002810DD00214C48818203
:103BB0008185C182C18500204949488248850883A2
:103BC0000021474841838183002037E70021444892
:103BD0008182818519E04348B0F90400002810DB98
:103BE000404881883E488182B0F914003E49B1F9CD
:103BF0001C104843401201B239488185818A4183B3
:103C000003E000213648818281853548B0F91000F3
:103C100000281ADD3348B0F90600002810DD002125
:103C20002F4881828185C182C18500202C4948822C
:103C30004885088300212A48418381830020FDE6CE
:103C400000212748C182C18519E02648B0F9060045
:103C5000002810DB2348C1882148C182B0F9160032
:103C60002149B1F91E104843401201B21C48C185D8
:103C7000C18A818303E000211948C182C1850020E7
:103C8000174948820846408A08830846B0F912005E
:103C90001549B1F91A104843401200B2104948853D
:103CA0000120CBE60F48008800286ED10C48B0F9FF
:103CB0000E0000281FDA0B488088B8B100210848A0
:103CC00081828185C182C18500200549488248855D
:103CD000088300210248418381830020AEE6000072
:103CE000781B00102C010010781E00100021FE48E7
:103CF000818281852BE0FD48B0F90400002810DCAA
:103D0000FA488188F8488182B0F91400F849B1F97D
:103D10001C104843401201B2F3488185818A4183D7
:103D200015E0F248B0F90400002810DD0021EE484B
:103D300081828185C182C1850020EB494882488506
:103D400008830021E84841838183002076E6E64825
:103D5000B0F91000002819DAE448C08880B10021C9
:103D6000E14881828185C182C1850020DE49488287
:103D7000488508830021DC484183818300205DE67B
:103D80000021D948C182C1852CE059E0D748B0F95B
:103D90000600002810DCD548C188D348C182B0F99C
:103DA0001600D349B1F91E104843401201B2CE4863
:103DB000C185C18A818315E0CC48B0F9060000288E
:103DC00010DD0021C84881828185C182C185002023
:103DD000C5494882488508830021C34841838183BF
:103DE00000202BE6C048B0F90C00C049B1F9021020
:103DF0004843002810DD0021BB4881828185C182B3
:103E0000C1850020B8494882488508830021B6480A
:103E100041838183002011E6B4484088B24948823A
:103E20000846408A08830846B0F91200B049B1F943
:103E30001A104843401200B2AB4948850220FDE504
:103E4000A948B0F90E0000281ADAA848B0F9040011
:103E5000002810DA0021A44881828185C182C185B1
:103E60000020A14948824885088300219E4841835B
:103E700081830020E2E500219B488182818519E051
:103E80009A48B0F90400002810DC984881889648C8
:103E90008182B0F914009649B1F91C1048434012D0
:103EA00001B291488185818A418303E000218E48D7
:103EB000818281858C48B0F9100000281ADA8B487D
:103EC000B0F90600002810DA002187488182818538
:103ED000C182C18500208449488248850883002129
:103EE0008148418381830020A8E500217E48C1826A
:103EF000C18519E07D48B0F90600002810DC7B4838
:103F0000C1887948C182B0F916007949B1F91E100B
:103F10004843401201B27448C185C18A818303E0DD
:103F200000217148C182C18500206F49488208463E
:103F3000408A08830846B0F912006D49B1F91A1099
:103F40004843401200B268494885012076E52DE9D2
:103F5000F0410026644801460A6BC0F81E20898E95
:103F60004184B0F922006249B1F92810884204DD89
:103F70005F48018D5C4841840EE05B48B0F9220047
:103F80005B49B1F928104942884205DA5848008D4A
:103F9000404201B2544841845548B0F92610524875
:103FA000B0F91C0001445048B0F92200814208DAFF
:103FB0004D48808B4E49C98C084401B24A4841841F
:103FC00013E04948B0F922004949B1F926100144EB
:103FD0004548B0F91C00814207DA4348808B4449C8
:103FE000C98C401A01B2404841843F48B0F92200D0
:103FF000002811DD3E48B0F928103B48B0F92200F6
:10400000081A3B49B1F92C1048433949B1F9281035
:1040100090FBF1F006B217E03348408C18B93448F1
:10402000B0F92E6010E03248B0F928102E48B0F9EF
:10403000220008442E49B1F92C1048432C49B1F90B
:10404000281090FBF1F006B22748B0F91E0040435B
:104050002549B1F92020B1F9201002FB010406FB2B
:1040600006F0A04217DA2046FDF7E4FE1E49B1F93A
:104070001E10714391FBF0F005B22046FDF7DAFE09
:1040800001461948B0F92000704390FBF1F007B2E7
:104090001548C58307841448B0F918001249B1F9CE
:1040A0001E10401A00FB00F40F48B0F91A10B0F9C6
:1040B0002000091A0C48B0F91A20B0F92000101A93
:1040C00001FB00442046FDF7B5FE04460848B0F960
:1040D0002A00A0425EDA0448B0F91E000249B1F994
:1040E0001810401A024905E0781B00102C0100103E
:1040F000781E0010B1F92A10484390FBF4F0FE49F5
:10410000098B084400B2FC49C8830846B0F9201066
:10411000B0F91A00081AF949B1F92A10484390FB7E
:10412000F4F0F549498B084401B2F3480184B0F931
:104130001E004043F049B1F92020B1F9201002FBE4
:1041400001042046FDF776FE0446B44222DDEB482A
:10415000B0F92C00A04201DA00250DE0E748B0F9E3
:1041600028006043E549B1F92C1090FBF1F005B24D
:10417000E248008D401B05B2DF48B0F92210B0F9CB
:104180001C00814202DDDC48458403E0684201B244
:10419000D94841840020BDE8F081D7480088002834
:1041A00046D1D548B0F90E00002804DD0021D248E0
:1041B0008182818518E0D048B0F9200000280FDB0B
:1041C000CD48018C8182B0F91400CC49B1F91C10A2
:1041D0004843401201B2C8488185818A418303E087
:1041E0000021C54881828185C348B0F910000028AC
:1041F00004DD0021C048C182C1855FE0BE48B0F93E
:10420000220000280FDBBC48418CC182B0F91600A7
:10421000BA49B1F91E104843401201B2B648C185EF
:10422000C18A81834AE00021B348C182C18545E04B
:10423000B148B0F90E00002804DA0021AE488182AE
:10424000818518E0AC48B0F9200000280FDCAA48AE
:10425000018C8182B0F91400A849B1F91C104843BF
:10426000401201B2A4488185818A418303E0002184
:10427000A14881828185A048B0F91000002804DAA5
:1042800000219D48C182C18518E09B48B0F92200F9
:1042900000280FDC9848418CC182B0F9160097497C
:1042A000B1F91E104843401201B29348C185C18A3A
:1042B000818303E000219048C182C1858E48B0F916
:1042C0000C008D49B1F91E104843002803DD002081
:1042D0008949488203E08848C08B874948828648DC
:1042E000408A854908830846B0F912008349B1F92C
:1042F0001A104843401200B27F4948850020704799
:104300002DE9F041002400257D497E48FEF7D6FEC8
:104310004FF400707849C8800846008800287DD195
:104320000846B0F90E00002814DD7648B0F9060002
:10433000052190FBF1F073490988084406B2304624
:10434000FDF79BFD00F5007085B200216A4881826F
:10435000818569E06848B0F9200000284EDB694893
:10436000B0F90000C0EB001040006549B1F9001041
:1043700090FBF1F16048008C401A01B25E488182E6
:104380006048B0F9060000EB800080005C49B1F99C
:10439000061090FBF1F05849898A081A01B2564874
:1043A0008182B0F91400002802DA0021524881828B
:1043B0005448B0F90600052190FBF1F051490988F5
:1043C000084406B23046FDF758FD4B49B1F91410C8
:1043D00064314843642190FBF1F000F5007085B230
:1043E0004548B0F914004549B1F91C104843401242
:1043F00001B241488185018C418315E04148B0F903
:104400000600052190FBF1F03E490988084406B2F8
:104410003046FDF732FD00F5007000E028E085B27F
:1044200000213548818281853348B0F91000002889
:1044300004DD00213048C182C185C7E02E48B0F9B3
:10444000220000280FDB2C48418CC182B0F91600F5
:104450002A49B1F91E104843401201B22648C185CD
:10446000C18A8183B2E000212348C182C185ADE0C9
:104470002148B0F90E00002814DA2248B0F90600ED
:10448000052190FBF1F01F490988084406B2304627
:10449000FDF7F3FCC0F5007085B20021164881825B
:1044A000818570E01448B0F92000002857DC1548D9
:1044B000B0F90000C0EB001040001149B1F9001044
:1044C00090FBF1F10C48008C401A01B20A4881823D
:1044D0000C48B0F9060000EB800080000849B1F9F3
:1044E000061090FBF1F00449898A081A01B20248CB
:1044F0008182B0F9140007E0781B0010781E0010CC
:10450000D81E0010CC1E0010002802DD0021FE483D
:104510008182FE48B0F90600052190FBF1F0FB49CD
:104520000988084406B23046FDF7A7FCF649B1F900
:10453000141064394843642190FBF1F000F50070D9
:1045400085B2F148B0F91400F149B1F91C104843A3
:10455000401201B2EC488185018C418313E0EB48A5
:10456000B0F90600052190FBF1F0E84909880844FC
:1045700006B23046FDF781FCC0F5007085B200211F
:10458000E14881828185E048B0F91000002804DA12
:104590000021DD48C182C18518E0DB48B0F9220066
:1045A00000280FDCD848418CC182B0F91600D849E8
:1045B000B1F91E104843401201B2D348C185C18AE7
:1045C000818303E00021D048C182C185CF48B0F982
:1045D0000200C0EB00104000CE49B1F9021090FB80
:1045E000F1F0C949C98B084400B2C7494882C7489D
:1045F000B0F9080000EB80008100C648B0F908005F
:1046000091FBF0F0C049498A084400B2BE49488293
:104610000846B0F91200502802DD5020488209E017
:10462000B948B0F9120010F1500F03DA6FF04F00E3
:10463000B5494882B448B0F90C00B349B1F9121039
:104640004843002804DD0020AF494882088306E083
:10465000AD48408AAC4948820846C08B0883AA48C6
:10466000B0F9120000281CDBA848B0F908000521A9
:1046700090FBF1F0A5494988084407B23846FDF798
:10468000FCFB061E01DB304600E070429E49B1F99A
:1046900012104843322190FBF1F0C0F5007084B253
:1046A0001BE09A48B0F90800052190FBF1F097490A
:1046B0004988084407B23846FDF7DFFB061E01DBD8
:1046C000304600E070429049B1F91210484332215F
:1046D00090FBF1F000F5007084B28B48B0F9120045
:1046E0008B49B1F91A104843401200B286494885F7
:1046F000A4F50072002A01DB134600E05342322B7E
:1047000013DAA4F50071002901DB0B4600E04B42EF
:104710003233A5F50070002801DB064600E0464272
:10472000B34202DA7848C58001E07748C480764811
:10473000C4800020BDE8F0812DE9F04105460E4619
:1047400000BF7549B1F90000002801DB014600E017
:10475000414209B2704A11806B48008800287CD120
:10476000B5F900006A49B1F90E1000FB01F4664882
:10477000B0F90C0004EB40246349B1F91000FDF7D7
:104780007CFB6549B1F900104843401040420444A5
:104790005D48B0F912005C49B1F90C10401AB5F946
:1047A000181000FB01445849B1F91600FDF765FBEC
:1047B00007465549B1F91000FDF75FFB381A564915
:1047C000B1F90010B5F91820514348438012404216
:1047D0000444601200B251490880B5F902004C4906
:1047E000B1F9101000FB01F44748B0F90E004A4936
:1047F000B1F9001000EB610004EB40244249B1F92B
:104800001000FDF75BFB4449B1F90010484304EB8D
:1048100060043D48B0F91410B0F90E00081AB5F95B
:104820001A1000FB01443849B1F91600FDF746FBA8
:1048300007463549B1F91000FDF740FB381A3649F3
:10484000B1F90010B5F91A205143484304EBA024F4
:10485000601200B23149488000E0D5E0B5F90400AB
:104860002B49B1F9121000FB01F4601200B22B4980
:104870008880B5F906002649B1F91410484344125E
:1048800020B22649C880B5F908002149B1F91610AF
:104890004843441221B221480181B5F90A001C495C
:1048A000B1F91810484344121748008A04441648C6
:1048B000B0F91610B0F91000081AB5F91C104843E9
:1048C00004EB602421B215484181B5F90C00104970
:1048D000B1F9021000FB01F40B48B0F9240004EB1D
:1048E00040240948B0F92A000749B1F92410401AB8
:1048F000B5F91E1000FB0144601200B2084908809F
:10490000B5F90E0002490DE0781B0010CC1E001016
:10491000781E0010D81E0010C21E0010AA1E001023
:10492000B61E0010B1F9041000FB01F4FE48B0F906
:104930000010FE48B0F9260001EB400004EB002413
:10494000FA48B0F92C10B0F92600081AB5F9201071
:1049500001FB0044601200B2F5494880B5F910002F
:10496000F449B1F9061000FB01F4601200B2F049FD
:104970008880B5F91200EF49B1F908104843441294
:1049800020B2EB49C880B5F91400EA49B1F90A1020
:1049900048434412E848B0F90200B4214843E749CB
:1049A000B1F9021090FBF1F004440021E348B0F9A2
:1049B000080091FBF0F0044421B2DD480181B5F913
:1049C0001600DC49B1F90C1048434412D748B0F93D
:1049D00028000444D548B0F92E10B0F92800081A70
:1049E000B5F92210484304EB602421B2D04841813C
:1049F000CD49B1F90000002801DB014600E0414249
:104A000009B2C94A118049E1B5F90000C949B1F9B3
:104A10000E1000FB01F4C548B0F90C0004EB402473
:104A2000C249B1F91000FDF728FABF49B1F90010E9
:104A3000484304EB6004BD48B0F91200BB49B1F92A
:104A40000C10401AB5F9181000FB0144B749B1F930
:104A50001600FDF712FA0746B449B1F91000FDF748
:104A60000CFA381AB049B1F90010B5F918205143C1
:104A7000484304EBA024601200B2B1490880B5F9A4
:104A800002004042AB49B1F9101000FB01F4A74805
:104A9000B0F90E00A449B1F90010A0EB610004EBDD
:104AA0004024A249B1F91000FDF708FA9E49B1F976
:104AB000001048434010404204449C48B0F9141090
:104AC000B0F90E00081AB5F91A1000FB0144974915
:104AD000B1F91600FDF7F2F907469449B1F9100053
:104AE000FDF7ECF9381A9049B1F90010B5F91A2020
:104AF00051434843801240420444601200B290493E
:104B00004880B5F904008B49B1F9121000FB01F49B
:104B1000601200B28A498880B5F906008549B1F96A
:104B2000141048434012444220B28549C880B5F968
:104B300008008049B1F916104843441221B2804858
:104B40000181B5F90A007B49B1F9181048434012B8
:104B500044427648008A04447448B0F91610B0F90B
:104B60001000081AB5F91C10484304EB602421B268
:104B700073484181B5F90C006E49B1F9021000FB90
:104B800001F46A48B0F9240004EB40246748B0F906
:104B90002A006649B1F92410401AB5F91E1000FB2D
:104BA0000144601200B262490880B5F90E0040422B
:104BB0006049B1F9041000FB01F45B48B0F9000052
:104BC00041425A48B0F9260001EB400004EB0024B2
:104BD0005648B0F92C10B0F92600081AB5F9201083
:104BE00001FB0044601200B251494880B5F9100041
:104BF0005049B1F9061000FB01F4601200B24C49B3
:104C00008880B5F912004B49B1F9081048434012A9
:104C1000444220B24649C880B5F914004549B1F96B
:104C20000A10484344124448B0F90200B4214843F2
:104C30004249B1F9021090FBF1F0044400213F48D1
:104C4000B0F9080091FBF0F0044421B2384801812A
:104C5000B5F916003749B1F90C10484340124442E7
:104C60003248B0F9280004443048B0F92E10B0F9A9
:104C70002800081AB5F92210484304EB602421B239
:104C80002B4841812849B1F90000002801DB014689
:104C900000E04142494209B2234A11800020BDE8A8
:104CA000F0812DE9F04105460E4600241E49B1F978
:104CB0000000002801DB014600E0414209B21A4A27
:104CC00011801A48008800287ED1B5F900001949E2
:104CD000B1F90E1000FB01F41448B0F90C0004EB1C
:104CE00040241249B1F91000FDF7C7F80E49B1F997
:104CF000001048434010404204440C48B0F91200F0
:104D00000A49B1F90C10401AB5F9181000FB01441A
:104D10000649B1F91600FDF7B0F807460349B1F9A5
:104D20001000FDF7AAF80DE0C21E0010781B00105D
:104D3000B61E0010781E0010CC1E0010D81E0010E9
:104D4000AA1E0010381AFE49B1F90010B5F9182052
:104D500051434843801240420444601200B2F94972
:104D60000880B5F90200F849B1F9101000FB01F410
:104D7000F648B0F90E00F249B1F9001000EB6100FD
:104D800004EB4024F149B1F91000FDF797F8EC4924
:104D9000B1F90010484304EB6004EC48B0F914107A
:104DA000B0F90E00081AB5F91A1000FB0144E749E2
:104DB000B1F91600FDF782F80746E449B1F9100091
:104DC000FDF77CF8381A00E0C2E0DD49B1F90010C7
:104DD000B5F91A205143484304EBA024601200B2F5
:104DE000D8494880B5F90400D749B1F9121000FB41
:104DF00001F4601200B2D3498880B5F90600D249A7
:104E0000B1F914104843441220B2CE49C880B5F914
:104E10000800CD49B1F916104843441221B2C948DF
:104E20000181B5F90A00C849B1F918104843441284
:104E3000C648B0F910000444C448B0F91610B0F9DF
:104E40001000081AB5F91C10484304EB602421B285
:104E5000BC484181B5F90C00BB49B1F9021000FB17
:104E600001F4BA48B0F9240004EB4024B748B0F983
:104E70002A00B649B1F92410401AB5F91E1000FBFA
:104E80000144601200B2B2490880B5F90E00AE4983
:104E9000B1F9041000FB01F4A948B0F90010AB48C7
:104EA000B0F9260001EB400004EB0024A748B0F95C
:104EB0002C10B0F92600081AB5F9201001FB0044A7
:104EC000601200B2A2494880B5F910009E49B1F9BC
:104ED000061000FB01F4601200B29D498880B5F90C
:104EE00012009949B1F908104843441220B2984978
:104EF000C880B5F914009449B1F90A104843441226
:104F000021B293480181B5F916008F49B1F90C100F
:104F1000484344128D48B0F9280004448B48B0F946
:104F20002E10B0F92800081AB5F92210484304EBF6
:104F3000602421B2864841818149B1F900000028EE
:104F400001DB014600E0414209B27D4A118044E1A3
:104F5000B5F900007C49B1F90E1000FB01F47B4863
:104F6000B0F90C0004EB40247849B1F91000FCF7CB
:104F700084FF7349B1F90010484304EB600473489F
:104F8000B0F912007149B1F90C10401AB5F91810B6
:104F900000FB01446D49B1F91600FCF76EFF0746AE
:104FA0006A49B1F91000FCF768FF391A6448B0F992
:104FB0000000B5F918205043414304EBA1246012CE
:104FC00000B260490880B5F9020040425E49B1F97B
:104FD000101000FB01F45D48B0F90E005849B1F91A
:104FE0000010A0EB610004EB40245849B1F9100017
:104FF000FCF764FF5249B1F90010484340104042A9
:1050000004445248B0F91410B0F90E00081AB5F96A
:105010001A1000FB01444D49B1F91600FCF74EFF90
:1050200007464A49B1F91000FCF748FF391A4448CD
:10503000B0F90000B5F91A205043414388124042AC
:105040000444601200B23F494880B5F904003E496B
:10505000B1F9121000FB01F4601200B239498880E6
:10506000B5F906003849B1F91410484340124442DA
:1050700020B23449C880B5F908003349B1F9161097
:105080004843441221B22F480181B5F90A002E4944
:10509000B1F918104843401244422C48B0F91000AE
:1050A00004442A48B0F91610B0F91000081AB5F9EE
:1050B0001C10484304EB602421B222484181B5F919
:1050C0000C002149B1F9021000FB01F41F48B0F9AE
:1050D000240004EB40241D48B0F92A001B49B1F913
:1050E0002410401AB5F91E1000FB0144601200B2F2
:1050F00017490880B5F90E0040421349B1F9041070
:1051000000FB01F40E48B0F9000041420F48B0F92D
:10511000260001EB400004EB00240C48B0F92C10F1
:10512000B0F92600081AB5F9201001FB00446012FE
:1051300000B207494880B5F9100003490AE00000B1
:10514000C21E0010AA1E0010781E0010781B00104E
:10515000B61E0010B1F9061000FB01F4601200B297
:10516000FE498880B5F91200FD49B1F9081048439D
:105170004012444220B2F949C880B5F91400F849F8
:10518000B1F90A104843441221B2F4480181B5F93B
:105190001600F349B1F90C10484340124442F1485B
:1051A000B0F928000444EF48B0F92E10B0F92800F7
:1051B000081AB5F92210484304EB602421B2E748ED
:1051C0004181E949B1F90000002801DB014600E016
:1051D0004142494209B2E44A11800020BDE8F08111
:1051E0002DE9F04105460E460024DF49B1F90000E3
:1051F000002801DB014600E0414209B2DA4A118091
:10520000D848008800287DD1B5F90000D549B1F90A
:105210001210484380008410D248B0F90C0004EB0F
:105220004024D049B1F91000FCF727FECE49B1F96E
:1052300000104843401040420444CA48B0F91200EC
:10524000C849B1F90C10401AB5F9181000FB014417
:10525000C449B1F91600FCF710FE0746C149B1F97F
:105260001000FCF70AFE381ABF49B1F90010B5F971
:10527000182051434843801240420444601200B257
:10528000BA490880B5F90200B549B1F9101000FB20
:1052900001F4B448B0F90E00B349B1F9001000EBC5
:1052A000610004EB4024AF49B1F91000FCF706FEA1
:1052B000AD49B1F90010484304EB6004A948B0F9C6
:1052C0001410B0F90E00081AB5F91A1000FB0144C9
:1052D000A449B1F91600FCF7F1FD0746A149B1F95F
:1052E0001000FCF7EBFD381A9F49B1F90010B5F931
:1052F0001A205143484304EBA024601200B29B499A
:10530000488000E0B6E0B5F904009549B1F9121003
:10531000484380008410601200B294498880B5F937
:1053200006008F49B1F914104843441220B28F4946
:10533000C880B5F908008A49B1F9161048434412EB
:1053400021B28A480181B5F90A008549B1F91810DE
:10535000484344128348B0F9100004448148B0F92E
:105360001610B0F91000081AB5F91C10484304EBE8
:10537000602421B27D484181B5F90C007849B1F92A
:10538000021000FB01F47748B0F9240004EB40243C
:105390007448B0F92A007349B1F92410401AB5F9DC
:1053A0001E1000FB0144601200B26C490880B5F980
:1053B0000E006B49B1F9041000FB01F46A48B0F922
:1053C00000106848B0F9260001EB400004EB00240F
:1053D0006448B0F92C10B0F92600081AB5F920106D
:1053E00001FB0044601200B25C494880B5F910002E
:1053F0005B49B1F9061000FB01F4601200B2574995
:105400008880B5F912005649B1F908104843441292
:1054100020B25249C880B5F914005149B1F90A10B7
:105420004843441221B24D480181B5F916004C4958
:10543000B1F90C10484344124A48B0F9280004441A
:105440004848B0F92E10B0F92800081AB5F9221012
:10545000484304EB602421B2404841814249B1F9FC
:105460000000002801DB014600E0414209B23E4A4B
:10547000118045E1B5F900003A49B1F912104843ED
:10548000800084103748B0F90C0004EB4024354903
:10549000B1F91000FCF7F1FC3349B1F900104843B1
:1054A00004EB60042F48B0F912002E49B1F90C103A
:1054B000401AB5F9181000FB01442A49B1F9160049
:1054C000FCF7DBFC07462749B1F91000FCF7D5FCD7
:1054D000381A2549B1F90010B5F91820514348434D
:1054E00004EBA024601200B220490880B5F9020044
:1054F00040421B49B1F9101000FB01F41948B0F902
:105500000E001949B1F90010A0EB610004EB402432
:105510001449B1F91000FCF7D1FC1349B1F900109E
:1055200048434010404204440E48B0F91410B0F90A
:105530000E00081AB5F91A1000FB01440949B1F927
:105540001600FCF7BBFC07460649B1F91000FCF752
:10555000B5FC381A0449B1F9001009E0B61E001074
:10556000781E0010781B0010C21E0010AA1E00102A
:10557000B5F91A2051434843801240420444601256
:1055800000B2FE494880B5F90400FD49B1F9121096
:10559000484380008410601200B2F8498880B5F951
:1055A0000600F749B1F9141048434012444220B2B2
:1055B000F249C880B5F90800F149B1F9161048431D
:1055C000441221B2ED480181B5F90A00EC49B1F964
:1055D0001810484340124442EA48B0F9100004440D
:1055E000E848B0F91610B0F91000081AB5F91C1007
:1055F000484304EB602421B2E0484181B5F90C0036
:10560000DF49B1F9021000FB01F4DE48B0F92400D3
:1056100004EB4024DB48B0F92A00DA49B1F9241040
:10562000401AB5F91E1000FB0144601200B2D649C1
:105630000880B5F90E004042D149B1F9041000FBD1
:1056400001F4D248B0F900004142CE48B0F926003A
:1056500001EB400004EB0024CA48B0F92C10B0F96B
:105660002600081AB5F9201001FB0044601200B2B0
:10567000C5494880B5F91000C149B1F9061000FBD1
:1056800001F4601200B2C0498880B5F91200BC492B
:10569000B1F9081048434012444220B2BA49C880C8
:1056A000B5F91400B649B1F90A104843441221B2C1
:1056B000B5480181B5F91600B149B1F90C1048435C
:1056C00040124442AF48B0F928000444AD48B0F954
:1056D0002E10B0F92800081AB5F92210484304EB3F
:1056E000602421B2A8484181A849B1F900000028EE
:1056F00001DB014600E04142494209B2A34A118060
:105700000020BDE8F08130B503460C4600219D48DD
:10571000008850BBB3F92800994DB5F9205000FB23
:1057200005F1481200B250834812404200B2908402
:10573000B3F92600924DB5F9225000FB05F148124D
:1057400000B290834812404200B25084B3F9240062
:105750008B4DB5F9245000FB05F14812404200B2D0
:10576000D083481200B2108429E0B3F92800844D98
:10577000B5F9205000FB05F14812404200B25083B9
:10578000481200B29084B3F926007D4DB5F922503D
:1057900000FB05F14812404200B29083481200B26B
:1057A0005084B3F92400764DB5F9245000FB05F17F
:1057B000481200B2D0834812404200B21084002048
:1057C00030BD10B500246F49B1F91600FCF776FB27
:1057D0006C49B1F91210494200FB01F46949B1F971
:1057E0001600FCF74AFB6749B1F91410494201FB66
:1057F0000044601200B263498881B1F91600FCF7D9
:105800003CFB6049B1F9121000FB01F45D49B1F9AC
:105810001600FCF753FB5B49B1F91410494201FB38
:105820000044601201B25748C181C08A404201B2AF
:10583000544801820146B1F91600FCF73FFB51497B
:10584000B1F92A104F4AB2F91220891A00FB01F46B
:105850004C49B1F91600FCF710FB4A49B1F92C206C
:10586000B1F91410511A01FB0044601200B245490D
:105870008884B1F91600FCF700FB4249B1F9121017
:10588000404AB2F92A20891A00FB01F43D49B1F9D6
:105890001600FCF713FB3B49B1F92C20B1F91410A9
:1058A000511A01FB0044601201B23648C184C08A1B
:1058B00041423448C08D084401B232480185008815
:1058C00018B901202F49088002E000202D490880E6
:1058D000002010BD2DE9F04107460E4600242C485B
:1058E000B0F90440B4F5C96F0CDD4FF4496094FB86
:1058F000F0F100FB1144B4F5C96F16DDA4F5496061
:1059000004B212E014F5C96F0FDA60424FF4496136
:1059100090FBF1F201FB120004B2604204B214F5F4
:10592000C96F02DA04F5496004B22046FCF7C6FAF2
:10593000B7F90010484345122046FCF79EFAB7F924
:1059400002104843A5EB602511480088284400B2A6
:105950000F4908802046FCF790FAB7F90010484339
:1059600045122046FCF7AAFAB7F90210484305EBA6
:10597000602507484088284400B20BE0AA1E0010AA
:10598000781E0010781B0010B61E0010C21E0010FA
:10599000181C0010FE49488008468088B9880844D1
:1059A00000B2FB4988800846B0F90440B4F5C96FDD
:1059B0000CDD4FF4496094FBF0F100FB1144B4F5A9
:1059C000C96F16DDA4F5496004B212E014F5C96F81
:1059D0000FDA60424FF4496190FBF1F201FB1200D3
:1059E00004B2604204B214F5C96F02DA04F54960EA
:1059F00004B286B32046FCF761FAB6F900104843BA
:105A000045122046FCF739FAB6F902104843A5EBD7
:105A10006025DF480088284400B2DD49C880204660
:105A2000FCF72BFAB6F90010484345122046FCF764
:105A300045FAB6F90210484305EB6025D448408882
:105A4000284401B2D24801818088B188084401B25B
:105A5000CF48418107E0FFE7CD4801460A68C0F81A
:105A60000620898841810020BDE8F081C948408A2C
:105A7000C9490880C748808A4880C648008800B263
:105A800088800020704700B5B3B000202E902D9084
:105A90002C902B904FF6FF7027900020269026AA7E
:105AA0000021BE48006803F048FF00BFBC48006802
:105AB00004F080FB0028F9D1BA480088062871D28A
:105AC000DFE800F00398FDFCFBFAB748008878B9DE
:105AD000B248006803F0E5FF26AA0021B04800683C
